{
  "contractName": "MerkleRedeem",
  "abi": [
    {
      "inputs": [
        {
          "internalType": "address",
          "name": "_token",
          "type": "address"
        }
      ],
      "stateMutability": "nonpayable",
      "type": "constructor"
    },
    {
      "anonymous": false,
      "inputs": [
        {
          "indexed": false,
          "internalType": "address",
          "name": "_claimant",
          "type": "address"
        },
        {
          "indexed": false,
          "internalType": "uint256",
          "name": "_balance",
          "type": "uint256"
        }
      ],
      "name": "Claimed",
      "type": "event"
    },
    {
      "inputs": [
        {
          "internalType": "uint256",
          "name": "",
          "type": "uint256"
        },
        {
          "internalType": "address",
          "name": "",
          "type": "address"
        }
      ],
      "name": "claimed",
      "outputs": [
        {
          "internalType": "bool",
          "name": "",
          "type": "bool"
        }
      ],
      "stateMutability": "view",
      "type": "function",
      "constant": true
    },
    {
      "inputs": [],
      "name": "owner",
      "outputs": [
        {
          "internalType": "address",
          "name": "",
          "type": "address"
        }
      ],
      "stateMutability": "view",
      "type": "function",
      "constant": true
    },
    {
      "inputs": [],
      "name": "token",
      "outputs": [
        {
          "internalType": "contract IERC20",
          "name": "",
          "type": "address"
        }
      ],
      "stateMutability": "view",
      "type": "function",
      "constant": true
    },
    {
      "inputs": [
        {
          "internalType": "uint256",
          "name": "",
          "type": "uint256"
        }
      ],
      "name": "weekBlockHashes",
      "outputs": [
        {
          "internalType": "bytes32",
          "name": "",
          "type": "bytes32"
        }
      ],
      "stateMutability": "view",
      "type": "function",
      "constant": true
    },
    {
      "inputs": [
        {
          "internalType": "uint256",
          "name": "",
          "type": "uint256"
        }
      ],
      "name": "weekMerkleRoots",
      "outputs": [
        {
          "internalType": "bytes32",
          "name": "",
          "type": "bytes32"
        }
      ],
      "stateMutability": "view",
      "type": "function",
      "constant": true
    },
    {
      "inputs": [
        {
          "internalType": "uint256",
          "name": "",
          "type": "uint256"
        }
      ],
      "name": "weekTimestamps",
      "outputs": [
        {
          "internalType": "uint256",
          "name": "",
          "type": "uint256"
        }
      ],
      "stateMutability": "view",
      "type": "function",
      "constant": true
    },
    {
      "inputs": [
        {
          "internalType": "address",
          "name": "user",
          "type": "address"
        },
        {
          "internalType": "uint256",
          "name": "_week",
          "type": "uint256"
        }
      ],
      "name": "offsetRequirementMet",
      "outputs": [
        {
          "internalType": "bool",
          "name": "",
          "type": "bool"
        }
      ],
      "stateMutability": "view",
      "type": "function",
      "constant": true
    },
    {
      "inputs": [
        {
          "internalType": "address",
          "name": "_liquidityProvider",
          "type": "address"
        },
        {
          "internalType": "uint256",
          "name": "_week",
          "type": "uint256"
        },
        {
          "internalType": "uint256",
          "name": "_claimedBalance",
          "type": "uint256"
        },
        {
          "internalType": "bytes32[]",
          "name": "_merkleProof",
          "type": "bytes32[]"
        }
      ],
      "name": "claimWeek",
      "outputs": [],
      "stateMutability": "nonpayable",
      "type": "function"
    },
    {
      "inputs": [
        {
          "internalType": "address",
          "name": "_liquidityProvider",
          "type": "address"
        },
        {
          "components": [
            {
              "internalType": "uint256",
              "name": "week",
              "type": "uint256"
            },
            {
              "internalType": "uint256",
              "name": "balance",
              "type": "uint256"
            },
            {
              "internalType": "bytes32[]",
              "name": "merkleProof",
              "type": "bytes32[]"
            }
          ],
          "internalType": "struct MerkleRedeem.Claim[]",
          "name": "claims",
          "type": "tuple[]"
        }
      ],
      "name": "claimWeeks",
      "outputs": [],
      "stateMutability": "nonpayable",
      "type": "function"
    },
    {
      "inputs": [
        {
          "internalType": "address",
          "name": "_liquidityProvider",
          "type": "address"
        },
        {
          "internalType": "uint256",
          "name": "_week",
          "type": "uint256"
        },
        {
          "internalType": "uint256",
          "name": "_claimedBalance",
          "type": "uint256"
        },
        {
          "internalType": "bytes32[]",
          "name": "_merkleProof",
          "type": "bytes32[]"
        }
      ],
      "name": "verifyClaim",
      "outputs": [
        {
          "internalType": "bool",
          "name": "valid",
          "type": "bool"
        }
      ],
      "stateMutability": "view",
      "type": "function",
      "constant": true
    },
    {
      "inputs": [
        {
          "internalType": "address",
          "name": "_liquidityProvider",
          "type": "address"
        },
        {
          "internalType": "bytes32",
          "name": "_weekBlockHash",
          "type": "bytes32"
        }
      ],
      "name": "userWeekOffset",
      "outputs": [
        {
          "internalType": "uint256",
          "name": "offset",
          "type": "uint256"
        }
      ],
      "stateMutability": "pure",
      "type": "function",
      "constant": true
    },
    {
      "inputs": [
        {
          "internalType": "uint256",
          "name": "_week",
          "type": "uint256"
        },
        {
          "internalType": "uint256",
          "name": "_timestamp",
          "type": "uint256"
        },
        {
          "internalType": "bytes32",
          "name": "_blockHash",
          "type": "bytes32"
        }
      ],
      "name": "finishWeek",
      "outputs": [],
      "stateMutability": "nonpayable",
      "type": "function"
    },
    {
      "inputs": [
        {
          "internalType": "uint256",
          "name": "_week",
          "type": "uint256"
        },
        {
          "internalType": "bytes32",
          "name": "_merkleRoot",
          "type": "bytes32"
        }
      ],
      "name": "seedAllocations",
      "outputs": [],
      "stateMutability": "nonpayable",
      "type": "function"
    }
  ],
  "bytecode": "0x60806040523480156200001157600080fd5b50604051620019a5380380620019a58339818101604052620000379190810190620000d6565b806000806101000a81548173ffffffffffffffffffffffffffffffffffffffff021916908373ffffffffffffffffffffffffffffffffffffffff16021790555033600160006101000a81548173ffffffffffffffffffffffffffffffffffffffff021916908373ffffffffffffffffffffffffffffffffffffffff1602179055505062000150565b600081519050620000d08162000136565b92915050565b600060208284031215620000e957600080fd5b6000620000f984828501620000bf565b91505092915050565b60006200010f8262000116565b9050919050565b600073ffffffffffffffffffffffffffffffffffffffff82169050919050565b620001418162000102565b81146200014d57600080fd5b50565b61184580620001606000396000f3fe608060405234801561001057600080fd5b50600436106100cf5760003560e01c80638da5cb5b1161008c578063e5e0541211610066578063e5e0541214610222578063eb0d07f514610252578063f3215b2e14610282578063fc0c546a146102b2576100cf565b80638da5cb5b146101b8578063c804c39a146101d6578063dd8c9c9d146101f2576100cf565b8063120aa877146100d457806329ec1cf6146101045780634476aed41461013457806350231f461461015057806358b4e4b41461018057806381ec12cd1461019c575b600080fd5b6100ee60048036036100e9919081019061112b565b6102d0565b6040516100fb9190611516565b60405180910390f35b61011e60048036036101199190810190611102565b6102ff565b60405161012b9190611531565b60405180910390f35b61014e60048036036101499190810190611167565b610317565b005b61016a60048036036101659190810190610fe6565b610485565b6040516101779190611627565b60405180910390f35b61019a6004803603610195919081019061105e565b6104c5565b005b6101b660048036036101b191908101906111a3565b6106d4565b005b6101c06107ab565b6040516101cd91906114d2565b60405180910390f35b6101f060048036036101eb9190810190610f92565b6107d1565b005b61020c60048036036102079190810190611102565b610a49565b6040516102199190611531565b60405180910390f35b61023c60048036036102379190810190611102565b610a61565b6040516102499190611627565b60405180910390f35b61026c6004803603610267919081019061105e565b610a79565b6040516102799190611516565b60405180910390f35b61029c60048036036102979190810190611022565b610ad0565b6040516102a99190611516565b60405180910390f35b6102ba610b25565b6040516102c7919061154c565b60405180910390f35b60066020528160005260406000206020528060005260406000206000915091509054906101000a900460ff1681565b60056020528060005260406000206000915090505481565b8160006004600083815260200190815260200160002054141561033957600080fd5b6000801b6005600083815260200190815260200160002054141561035c57600080fd5b826000801b60036000838152602001908152602001600020541461037f57600080fd5b600160009054906101000a900473ffffffffffffffffffffffffffffffffffffffff1673ffffffffffffffffffffffffffffffffffffffff163373ffffffffffffffffffffffffffffffffffffffff161461040f576040517f08c379a0000000000000000000000000000000000000000000000000000000008152600401610406906115c7565b60405180910390fd5b6000801b600360008681526020019081526020016000205414610467576040517f08c379a000000000000000000000000000000000000000000000000000000000815260040161045e90611607565b60405180910390fd5b82600360008681526020019081526020016000208190555050505050565b600080838360405160200161049b92919061144e565b60405160208183030381529060405280519060200120905062093a80810691508191505092915050565b8260025481111561050b576040517f08c379a000000000000000000000000000000000000000000000000000000000815260040161050290611567565b60405180910390fd5b8360006004600083815260200190815260200160002054141561052d57600080fd5b6000801b6005600083815260200190815260200160002054141561055057600080fd5b6002548514156105a65761056686600254610ad0565b6105a5576040517f08c379a000000000000000000000000000000000000000000000000000000000815260040161059c906115e7565b60405180910390fd5b5b6006600086815260200190815260200160002060008773ffffffffffffffffffffffffffffffffffffffff1673ffffffffffffffffffffffffffffffffffffffff16815260200190815260200160002060009054906101000a900460ff161561060e57600080fd5b61061a86868686610a79565b610659576040517f08c379a000000000000000000000000000000000000000000000000000000000815260040161065090611587565b60405180910390fd5b60016006600087815260200190815260200160002060008873ffffffffffffffffffffffffffffffffffffffff1673ffffffffffffffffffffffffffffffffffffffff16815260200190815260200160002060006101000a81548160ff0219169083151502179055506106cc8685610b4a565b505050505050565b600160009054906101000a900473ffffffffffffffffffffffffffffffffffffffff1673ffffffffffffffffffffffffffffffffffffffff163373ffffffffffffffffffffffffffffffffffffffff1614610764576040517f08c379a000000000000000000000000000000000000000000000000000000000815260040161075b906115c7565b60405180910390fd5b8160046000858152602001908152602001600020819055508060056000858152602001908152602001600020819055506002548311156107a657826002819055505b505050565b600160009054906101000a900473ffffffffffffffffffffffffffffffffffffffff1681565b60008090506107de610d2b565b60008090505b8351811015610a38578381815181106107f957fe5b602002602001015191506002548260000151111561084c576040517f08c379a000000000000000000000000000000000000000000000000000000000815260040161084390611567565b60405180910390fd5b6000600460008460000151815260200190815260200160002054141561087157600080fd5b6000801b600560008460000151815260200190815260200160002054141561089857600080fd5b600254826000015114156108f2576108b285600254610ad0565b6108f1576040517f08c379a00000000000000000000000000000000000000000000000000000000081526004016108e8906115e7565b60405180910390fd5b5b600660008360000151815260200190815260200160002060008673ffffffffffffffffffffffffffffffffffffffff1673ffffffffffffffffffffffffffffffffffffffff16815260200190815260200160002060009054906101000a900460ff161561095e57600080fd5b61097685836000015184602001518560400151610a79565b6109b5576040517f08c379a00000000000000000000000000000000000000000000000000000000081526004016109ac90611587565b60405180910390fd5b8160200151830192506001600660008460000151815260200190815260200160002060008773ffffffffffffffffffffffffffffffffffffffff1673ffffffffffffffffffffffffffffffffffffffff16815260200190815260200160002060006101000a81548160ff02191690831515021790555080806001019150506107e4565b50610a438483610b4a565b50505050565b60036020528060005260406000206000915090505481565b60046020528060005260406000206000915090505481565b6000808584604051602001610a8f92919061147a565b604051602081830303815290604052805190602001209050610ac583600360008881526020019081526020016000205483610c7f565b915050949350505050565b600080600560008481526020019081526020016000205490506000600460008581526020019081526020016000205490506000610b0d8684610485565b90506000818301905042811094505050505092915050565b6000809054906101000a900473ffffffffffffffffffffffffffffffffffffffff1681565b6000811115610c40576000809054906101000a900473ffffffffffffffffffffffffffffffffffffffff1673ffffffffffffffffffffffffffffffffffffffff1663a9059cbb83836040518363ffffffff1660e01b8152600401610baf9291906114ed565b602060405180830381600087803b158015610bc957600080fd5b505af1158015610bdd573d6000803e3d6000fd5b505050506040513d601f19601f82011682018060405250610c0191908101906110d9565b507fd8138f8a3f377c5259ca548e70e4c2de94f129f5a11036a15b69513cba2b426a8282604051610c339291906114ed565b60405180910390a1610c7b565b6040517f08c379a0000000000000000000000000000000000000000000000000000000008152600401610c72906115a7565b60405180910390fd5b5050565b60008082905060008090505b8551811015610d1d576000868281518110610ca257fe5b60200260200101519050808311610ce3578281604051602001610cc69291906114a6565b604051602081830303815290604052805190602001209250610d0f565b8083604051602001610cf69291906114a6565b6040516020818303038152906040528051906020012092505b508080600101915050610c8b565b508381149150509392505050565b60405180606001604052806000815260200160008152602001606081525090565b600081359050610d5b816117b3565b92915050565b600082601f830112610d7257600080fd5b8135610d85610d808261166f565b611642565b91508181835260208401935060208101905083856020840282011115610daa57600080fd5b60005b83811015610dda5781610dc08882610ef0565b845260208401935060208301925050600181019050610dad565b5050505092915050565b600082601f830112610df557600080fd5b8135610e08610e0382611697565b611642565b91508181835260208401935060208101905083856020840282011115610e2d57600080fd5b60005b83811015610e5d5781610e438882610ef0565b845260208401935060208301925050600181019050610e30565b5050505092915050565b600082601f830112610e7857600080fd5b8135610e8b610e86826116bf565b611642565b9150818183526020840193506020810190508360005b83811015610ed15781358601610eb78882610f05565b845260208401935060208301925050600181019050610ea1565b5050505092915050565b600081519050610eea816117ca565b92915050565b600081359050610eff816117e1565b92915050565b600060608284031215610f1757600080fd5b610f216060611642565b90506000610f3184828501610f7d565b6000830152506020610f4584828501610f7d565b602083015250604082013567ffffffffffffffff811115610f6557600080fd5b610f7184828501610d61565b60408301525092915050565b600081359050610f8c816117f8565b92915050565b60008060408385031215610fa557600080fd5b6000610fb385828601610d4c565b925050602083013567ffffffffffffffff811115610fd057600080fd5b610fdc85828601610e67565b9150509250929050565b60008060408385031215610ff957600080fd5b600061100785828601610d4c565b925050602061101885828601610ef0565b9150509250929050565b6000806040838503121561103557600080fd5b600061104385828601610d4c565b925050602061105485828601610f7d565b9150509250929050565b6000806000806080858703121561107457600080fd5b600061108287828801610d4c565b945050602061109387828801610f7d565b93505060406110a487828801610f7d565b925050606085013567ffffffffffffffff8111156110c157600080fd5b6110cd87828801610de4565b91505092959194509250565b6000602082840312156110eb57600080fd5b60006110f984828501610edb565b91505092915050565b60006020828403121561111457600080fd5b600061112284828501610f7d565b91505092915050565b6000806040838503121561113e57600080fd5b600061114c85828601610f7d565b925050602061115d85828601610d4c565b9150509250929050565b6000806040838503121561117a57600080fd5b600061118885828601610f7d565b925050602061119985828601610ef0565b9150509250929050565b6000806000606084860312156111b857600080fd5b60006111c686828701610f7d565b93505060206111d786828701610f7d565b92505060406111e886828701610ef0565b9150509250925092565b6111fb816116f8565b82525050565b61121261120d826116f8565b61176e565b82525050565b6112218161170a565b82525050565b61123081611716565b82525050565b61124761124282611716565b611780565b82525050565b6112568161174a565b82525050565b6000611269601c836116e7565b91507f5765656b2063616e6e6f7420626520696e2074686520667574757265000000006000830152602082019050919050565b60006112a96016836116e7565b91507f496e636f7272656374206d65726b6c652070726f6f66000000000000000000006000830152602082019050919050565b60006112e96039836116e7565b91507f4e6f2062616c616e636520776f756c64206265207472616e736665726564202d60008301527f206e6f7420676f6e6e6120776173746520796f757220676173000000000000006020830152604082019050919050565b600061134f601a836116e7565b91507f4d7573742062652074686520636f6e7472616374206f776e65720000000000006000830152602082019050919050565b600061138f602d836116e7565b91507f497420697320746f6f206561726c7920746f20636c61696d20666f722074686560008301527f2063757272656e74207765656b000000000000000000000000000000000000006020830152604082019050919050565b60006113f5601a836116e7565b91507f63616e6e6f742072657772697465206d65726b6c6520726f6f740000000000006000830152602082019050919050565b61143181611740565b82525050565b61144861144382611740565b61179c565b82525050565b600061145a8285611201565b60148201915061146a8284611236565b6020820191508190509392505050565b60006114868285611201565b6014820191506114968284611437565b6020820191508190509392505050565b60006114b28285611236565b6020820191506114c28284611236565b6020820191508190509392505050565b60006020820190506114e760008301846111f2565b92915050565b600060408201905061150260008301856111f2565b61150f6020830184611428565b9392505050565b600060208201905061152b6000830184611218565b92915050565b60006020820190506115466000830184611227565b92915050565b6000602082019050611561600083018461124d565b92915050565b600060208201905081810360008301526115808161125c565b9050919050565b600060208201905081810360008301526115a08161129c565b9050919050565b600060208201905081810360008301526115c0816112dc565b9050919050565b600060208201905081810360008301526115e081611342565b9050919050565b6000602082019050818103600083015261160081611382565b9050919050565b60006020820190508181036000830152611620816113e8565b9050919050565b600060208201905061163c6000830184611428565b92915050565b6000604051905081810181811067ffffffffffffffff8211171561166557600080fd5b8060405250919050565b600067ffffffffffffffff82111561168657600080fd5b602082029050602081019050919050565b600067ffffffffffffffff8211156116ae57600080fd5b602082029050602081019050919050565b600067ffffffffffffffff8211156116d657600080fd5b602082029050602081019050919050565b600082825260208201905092915050565b600061170382611720565b9050919050565b60008115159050919050565b6000819050919050565b600073ffffffffffffffffffffffffffffffffffffffff82169050919050565b6000819050919050565b60006117558261175c565b9050919050565b600061176782611720565b9050919050565b60006117798261178a565b9050919050565b6000819050919050565b6000611795826117a6565b9050919050565b6000819050919050565b60008160601b9050919050565b6117bc816116f8565b81146117c757600080fd5b50565b6117d38161170a565b81146117de57600080fd5b50565b6117ea81611716565b81146117f557600080fd5b50565b61180181611740565b811461180c57600080fd5b5056fea2646970667358221220f0ca36f7f1963befff377be808c4e8360777125d1f4dc4d2e9c9768f4c43d3b664736f6c63430006000033",
  "source": "pragma solidity 0.6.0;\npragma experimental ABIEncoderV2;\n\nimport \"@openzeppelin/contracts/cryptography/MerkleProof.sol\";\nimport \"./IERC20.sol\";\n\ncontract MerkleRedeem {\n\n  IERC20 public token;\n  address public owner;\n\n  event Claimed(address _claimant, uint256 _balance);\n\n\n  // Recorded weeks\n  uint latestWeek;\n  mapping(uint => bytes32) public weekMerkleRoots;\n  mapping(uint => uint) public weekTimestamps;\n  mapping(uint => bytes32) public weekBlockHashes;\n\n  mapping(uint => mapping(address => bool)) public claimed;\n\n  constructor(\n    address _token\n  ) public {\n    token = IERC20(_token);\n    owner = msg.sender;\n  }\n\n  modifier onlyOwner() {\n    require(msg.sender == owner, \"Must be the contract owner\");\n    _;\n  }\n\n  modifier requireWeekInPast(uint week) {\n    require(week <= latestWeek, \"Week cannot be in the future\");\n    _;\n  }\n\n  modifier requireWeekRecorded(uint _week) {\n    require(weekTimestamps[_week] != 0);\n    require(weekBlockHashes[_week] != 0);\n    _;\n  }\n\n  modifier requireMerkleRootUnset(uint _week) {\n    require(weekMerkleRoots[_week] == bytes32(0));\n    _;\n  }\n\n  function disburse(address _liquidityProvider, uint _balance) private {\n    if (_balance > 0) {\n      token.transfer(_liquidityProvider, _balance);\n      emit Claimed(_liquidityProvider, _balance);\n    } else {\n      revert('No balance would be transfered - not gonna waste your gas');\n    }\n  }\n\n\n  function offsetRequirementMet(address user, uint _week) view public returns (bool){\n      bytes32 blockHash = weekBlockHashes[_week];\n      uint timestamp = weekTimestamps[_week];\n      uint offsetSeconds = userWeekOffset(user, blockHash);\n\n      uint earliestClaimableTimestamp = timestamp + offsetSeconds;\n      return earliestClaimableTimestamp < block.timestamp;\n  }\n\n  function claimWeek(address _liquidityProvider, uint _week, uint _claimedBalance, bytes32[] memory _merkleProof) public\n  requireWeekInPast(_week)\n  requireWeekRecorded(_week)\n  {\n    // if trying to claim for the current week\n    if(_week == latestWeek) {\n      require(offsetRequirementMet(_liquidityProvider, latestWeek), \"It is too early to claim for the current week\");\n    }\n\n    require(!claimed[_week][_liquidityProvider]);\n    require(verifyClaim(_liquidityProvider, _week, _claimedBalance, _merkleProof), 'Incorrect merkle proof');\n\n    claimed[_week][_liquidityProvider] = true;\n    disburse(_liquidityProvider, _claimedBalance);\n  }\n\n  struct Claim {\n    uint week;\n    uint balance;\n    bytes32[] merkleProof;\n\n  }\n\n  function claimWeeks(address _liquidityProvider, Claim[] memory claims) public\n  {\n    uint totalBalance = 0;\n    Claim memory claim ;\n    for(uint i = 0; i < claims.length; i++) {\n      claim = claims[i];\n      require(claim.week <= latestWeek, \"Week cannot be in the future\");\n      require(weekTimestamps[claim.week] != 0);\n      require(weekBlockHashes[claim.week] != 0);\n\n      // if trying to claim for the current week\n      if(claim.week == latestWeek) {\n        require(offsetRequirementMet(_liquidityProvider, latestWeek), \"It is too early to claim for the current week\");\n      }\n\n      require(!claimed[claim.week][_liquidityProvider]);\n      require(verifyClaim(_liquidityProvider, claim.week, claim.balance, claim.merkleProof), 'Incorrect merkle proof');\n\n      totalBalance += claim.balance;\n      claimed[claim.week][_liquidityProvider] = true;\n    }\n    disburse(_liquidityProvider, totalBalance);\n  }\n\n  function verifyClaim(address _liquidityProvider, uint _week, uint _claimedBalance, bytes32[] memory _merkleProof) view public returns (bool valid) {\n    bytes32 leaf = keccak256(abi.encodePacked(_liquidityProvider, _claimedBalance));\n    return MerkleProof.verify(_merkleProof, weekMerkleRoots[_week], leaf);\n  }\n\n  function userWeekOffset(address _liquidityProvider, bytes32 _weekBlockHash) pure public returns (uint offset) {\n    bytes32 hash = keccak256(abi.encodePacked(_liquidityProvider, _weekBlockHash));\n    assembly {\n      offset :=\n        mod(\n          hash,\n          604800 // seconds in a week\n        )\n    }\n    return offset;\n  }\n\n\n  function finishWeek(uint _week, uint _timestamp, bytes32 _blockHash) public\n  onlyOwner\n  {\n    weekTimestamps[_week] = _timestamp;\n    weekBlockHashes[_week] = _blockHash;\n    if (_week > latestWeek) { // just in case we get these out of order\n      latestWeek = _week;\n    }\n  }\n\n  function seedAllocations(uint _week, bytes32 _merkleRoot) external\n  requireWeekRecorded(_week)\n  requireMerkleRootUnset(_week)\n  onlyOwner\n  {\n    require(weekMerkleRoots[_week] == bytes32(0), \"cannot rewrite merkle root\");\n    weekMerkleRoots[_week] = _merkleRoot;\n  }\n}\n",
  "sourcePath": "/home/greg/erc20-redeemable/merkle/contracts/MerkleRedeem.sol",
  "compiler": {
    "name": "solc",
    "version": "0.6.0+commit.26b70077.Emscripten.clang"
  },
  "schemaVersion": "3.0.23",
  "updatedAt": "2020-08-12T16:40:44.788Z",
  "networkType": "ethereum",
  "devdoc": {
    "methods": {}
  },
  "userdoc": {
    "methods": {}
  }
}