{
  "contractName": "MerkleRedeem",
  "abi": [
    {
      "inputs": [
        {
          "internalType": "address",
          "name": "_token",
          "type": "address"
        }
      ],
      "stateMutability": "nonpayable",
      "type": "constructor"
    },
    {
      "anonymous": false,
      "inputs": [
        {
          "indexed": false,
          "internalType": "address",
          "name": "_claimant",
          "type": "address"
        },
        {
          "indexed": false,
          "internalType": "uint256",
          "name": "_balance",
          "type": "uint256"
        }
      ],
      "name": "Claimed",
      "type": "event"
    },
    {
      "inputs": [
        {
          "internalType": "uint256",
          "name": "",
          "type": "uint256"
        },
        {
          "internalType": "address",
          "name": "",
          "type": "address"
        }
      ],
      "name": "claimed",
      "outputs": [
        {
          "internalType": "bool",
          "name": "",
          "type": "bool"
        }
      ],
      "stateMutability": "view",
      "type": "function",
      "constant": true
    },
    {
      "inputs": [],
      "name": "owner",
      "outputs": [
        {
          "internalType": "address",
          "name": "",
          "type": "address"
        }
      ],
      "stateMutability": "view",
      "type": "function",
      "constant": true
    },
    {
      "inputs": [],
      "name": "token",
      "outputs": [
        {
          "internalType": "contract IERC20",
          "name": "",
          "type": "address"
        }
      ],
      "stateMutability": "view",
      "type": "function",
      "constant": true
    },
    {
      "inputs": [
        {
          "internalType": "uint256",
          "name": "",
          "type": "uint256"
        }
      ],
      "name": "weekBlockHashes",
      "outputs": [
        {
          "internalType": "bytes32",
          "name": "",
          "type": "bytes32"
        }
      ],
      "stateMutability": "view",
      "type": "function",
      "constant": true
    },
    {
      "inputs": [
        {
          "internalType": "uint256",
          "name": "",
          "type": "uint256"
        }
      ],
      "name": "weekMerkleRoots",
      "outputs": [
        {
          "internalType": "bytes32",
          "name": "",
          "type": "bytes32"
        }
      ],
      "stateMutability": "view",
      "type": "function",
      "constant": true
    },
    {
      "inputs": [
        {
          "internalType": "uint256",
          "name": "",
          "type": "uint256"
        }
      ],
      "name": "weekTimestamps",
      "outputs": [
        {
          "internalType": "uint256",
          "name": "",
          "type": "uint256"
        }
      ],
      "stateMutability": "view",
      "type": "function",
      "constant": true
    },
    {
      "inputs": [
        {
          "internalType": "address",
          "name": "user",
          "type": "address"
        },
        {
          "internalType": "uint256",
          "name": "_week",
          "type": "uint256"
        }
      ],
      "name": "offsetRequirementMet",
      "outputs": [
        {
          "internalType": "bool",
          "name": "",
          "type": "bool"
        }
      ],
      "stateMutability": "view",
      "type": "function",
      "constant": true
    },
    {
      "inputs": [
        {
          "internalType": "address",
          "name": "_liquidityProvider",
          "type": "address"
        },
        {
          "internalType": "uint256",
          "name": "_week",
          "type": "uint256"
        },
        {
          "internalType": "uint256",
          "name": "_claimedBalance",
          "type": "uint256"
        },
        {
          "internalType": "bytes32[]",
          "name": "_merkleProof",
          "type": "bytes32[]"
        }
      ],
      "name": "claimWeek",
      "outputs": [],
      "stateMutability": "nonpayable",
      "type": "function"
    },
    {
      "inputs": [
        {
          "internalType": "address",
          "name": "_liquidityProvider",
          "type": "address"
        },
        {
          "components": [
            {
              "internalType": "uint256",
              "name": "week",
              "type": "uint256"
            },
            {
              "internalType": "uint256",
              "name": "balance",
              "type": "uint256"
            },
            {
              "internalType": "bytes32[]",
              "name": "merkleProof",
              "type": "bytes32[]"
            }
          ],
          "internalType": "struct MerkleRedeem.Claim[]",
          "name": "claims",
          "type": "tuple[]"
        }
      ],
      "name": "claimWeeks",
      "outputs": [],
      "stateMutability": "nonpayable",
      "type": "function"
    },
    {
      "inputs": [
        {
          "internalType": "address",
          "name": "_liquidityProvider",
          "type": "address"
        },
        {
          "internalType": "uint256",
          "name": "_begin",
          "type": "uint256"
        },
        {
          "internalType": "uint256",
          "name": "_end",
          "type": "uint256"
        }
      ],
      "name": "claimStatus",
      "outputs": [
        {
          "internalType": "bool[]",
          "name": "",
          "type": "bool[]"
        }
      ],
      "stateMutability": "view",
      "type": "function",
      "constant": true
    },
    {
      "inputs": [
        {
          "internalType": "uint256",
          "name": "_begin",
          "type": "uint256"
        },
        {
          "internalType": "uint256",
          "name": "_end",
          "type": "uint256"
        }
      ],
      "name": "merkleRoots",
      "outputs": [
        {
          "internalType": "bytes32[]",
          "name": "",
          "type": "bytes32[]"
        }
      ],
      "stateMutability": "view",
      "type": "function",
      "constant": true
    },
    {
      "inputs": [
        {
          "internalType": "address",
          "name": "_liquidityProvider",
          "type": "address"
        },
        {
          "internalType": "uint256",
          "name": "_week",
          "type": "uint256"
        },
        {
          "internalType": "uint256",
          "name": "_claimedBalance",
          "type": "uint256"
        },
        {
          "internalType": "bytes32[]",
          "name": "_merkleProof",
          "type": "bytes32[]"
        }
      ],
      "name": "verifyClaim",
      "outputs": [
        {
          "internalType": "bool",
          "name": "valid",
          "type": "bool"
        }
      ],
      "stateMutability": "view",
      "type": "function",
      "constant": true
    },
    {
      "inputs": [
        {
          "internalType": "address",
          "name": "_liquidityProvider",
          "type": "address"
        },
        {
          "internalType": "bytes32",
          "name": "_weekBlockHash",
          "type": "bytes32"
        }
      ],
      "name": "userWeekOffset",
      "outputs": [
        {
          "internalType": "uint256",
          "name": "offset",
          "type": "uint256"
        }
      ],
      "stateMutability": "pure",
      "type": "function",
      "constant": true
    },
    {
      "inputs": [
        {
          "internalType": "uint256",
          "name": "_week",
          "type": "uint256"
        },
        {
          "internalType": "uint256",
          "name": "_timestamp",
          "type": "uint256"
        },
        {
          "internalType": "bytes32",
          "name": "_blockHash",
          "type": "bytes32"
        }
      ],
      "name": "finishWeek",
      "outputs": [],
      "stateMutability": "nonpayable",
      "type": "function"
    },
    {
      "inputs": [
        {
          "internalType": "uint256",
          "name": "_week",
          "type": "uint256"
        },
        {
          "internalType": "bytes32",
          "name": "_merkleRoot",
          "type": "bytes32"
        }
      ],
      "name": "seedAllocations",
      "outputs": [],
      "stateMutability": "nonpayable",
      "type": "function"
    }
  ],
  "bytecode": "0x60806040523480156200001157600080fd5b5060405162001df138038062001df18339818101604052620000379190810190620000d6565b806000806101000a81548173ffffffffffffffffffffffffffffffffffffffff021916908373ffffffffffffffffffffffffffffffffffffffff16021790555033600160006101000a81548173ffffffffffffffffffffffffffffffffffffffff021916908373ffffffffffffffffffffffffffffffffffffffff1602179055505062000150565b600081519050620000d08162000136565b92915050565b600060208284031215620000e957600080fd5b6000620000f984828501620000bf565b91505092915050565b60006200010f8262000116565b9050919050565b600073ffffffffffffffffffffffffffffffffffffffff82169050919050565b620001418162000102565b81146200014d57600080fd5b50565b611c9180620001606000396000f3fe608060405234801561001057600080fd5b50600436106100f55760003560e01c806381ec12cd11610097578063e5e0541211610066578063e5e05412146102a8578063eb0d07f5146102d8578063f3215b2e14610308578063fc0c546a14610338576100f5565b806381ec12cd146102225780638da5cb5b1461023e578063c804c39a1461025c578063dd8c9c9d14610278576100f5565b80634476aed4116100d35780634476aed41461018a57806347fb23c1146101a657806350231f46146101d657806358b4e4b414610206576100f5565b8063120aa877146100fa57806329ec1cf61461012a57806339436b001461015a575b600080fd5b610114600480360361010f919081019061137b565b610356565b60405161012191906118f0565b60405180910390f35b610144600480360361013f9190810190611352565b610385565b604051610151919061190b565b60405180910390f35b610174600480360361016f91908101906113f3565b61039d565b60405161018191906118ce565b60405180910390f35b6101a4600480360361019f91908101906113b7565b610432565b005b6101c060048036036101bb919081019061125f565b6105a0565b6040516101cd91906118ac565b60405180910390f35b6101f060048036036101eb91908101906111e7565b610686565b6040516101fd9190611a01565b60405180910390f35b610220600480360361021b91908101906112ae565b6106c6565b005b61023c6004803603610237919081019061142f565b6108d5565b005b6102466109ac565b6040516102539190611868565b60405180910390f35b61027660048036036102719190810190611193565b6109d2565b005b610292600480360361028d9190810190611352565b610c4a565b60405161029f919061190b565b60405180910390f35b6102c260048036036102bd9190810190611352565b610c62565b6040516102cf9190611a01565b60405180910390f35b6102f260048036036102ed91908101906112ae565b610c7a565b6040516102ff91906118f0565b60405180910390f35b610322600480360361031d9190810190611223565b610cd1565b60405161032f91906118f0565b60405180910390f35b610340610d26565b60405161034d9190611926565b60405180910390f35b60066020528160005260406000206020528060005260406000206000915091509054906101000a900460ff1681565b60056020528060005260406000206000915090505481565b6060600083836001010390506060816040519080825280602002602001820160405280156103da5781602001602082028038833980820191505090505b50905060008090505b82811015610426576003600082880181526020019081526020016000205482828151811061040d57fe5b60200260200101818152505080806001019150506103e3565b50809250505092915050565b8160006004600083815260200190815260200160002054141561045457600080fd5b6000801b6005600083815260200190815260200160002054141561047757600080fd5b826000801b60036000838152602001908152602001600020541461049a57600080fd5b600160009054906101000a900473ffffffffffffffffffffffffffffffffffffffff1673ffffffffffffffffffffffffffffffffffffffff163373ffffffffffffffffffffffffffffffffffffffff161461052a576040517f08c379a0000000000000000000000000000000000000000000000000000000008152600401610521906119a1565b60405180910390fd5b6000801b600360008681526020019081526020016000205414610582576040517f08c379a0000000000000000000000000000000000000000000000000000000008152600401610579906119e1565b60405180910390fd5b82600360008681526020019081526020016000208190555050505050565b6060600083836001010390506060816040519080825280602002602001820160405280156105dd5781602001602082028038833980820191505090505b50905060008090505b828110156106795760066000828801815260200190815260200160002060008873ffffffffffffffffffffffffffffffffffffffff1673ffffffffffffffffffffffffffffffffffffffff16815260200190815260200160002060009054906101000a900460ff1682828151811061065a57fe5b60200260200101901515908115158152505080806001019150506105e6565b5080925050509392505050565b600080838360405160200161069c9291906117e4565b60405160208183030381529060405280519060200120905062093a80810691508191505092915050565b8260025481111561070c576040517f08c379a000000000000000000000000000000000000000000000000000000000815260040161070390611941565b60405180910390fd5b8360006004600083815260200190815260200160002054141561072e57600080fd5b6000801b6005600083815260200190815260200160002054141561075157600080fd5b6002548514156107a75761076786600254610cd1565b6107a6576040517f08c379a000000000000000000000000000000000000000000000000000000000815260040161079d906119c1565b60405180910390fd5b5b6006600086815260200190815260200160002060008773ffffffffffffffffffffffffffffffffffffffff1673ffffffffffffffffffffffffffffffffffffffff16815260200190815260200160002060009054906101000a900460ff161561080f57600080fd5b61081b86868686610c7a565b61085a576040517f08c379a000000000000000000000000000000000000000000000000000000000815260040161085190611961565b60405180910390fd5b60016006600087815260200190815260200160002060008873ffffffffffffffffffffffffffffffffffffffff1673ffffffffffffffffffffffffffffffffffffffff16815260200190815260200160002060006101000a81548160ff0219169083151502179055506108cd8685610d4b565b505050505050565b600160009054906101000a900473ffffffffffffffffffffffffffffffffffffffff1673ffffffffffffffffffffffffffffffffffffffff163373ffffffffffffffffffffffffffffffffffffffff1614610965576040517f08c379a000000000000000000000000000000000000000000000000000000000815260040161095c906119a1565b60405180910390fd5b8160046000858152602001908152602001600020819055508060056000858152602001908152602001600020819055506002548311156109a757826002819055505b505050565b600160009054906101000a900473ffffffffffffffffffffffffffffffffffffffff1681565b60008090506109df610f2c565b60008090505b8351811015610c39578381815181106109fa57fe5b6020026020010151915060025482600001511115610a4d576040517f08c379a0000000000000000000000000000000000000000000000000000000008152600401610a4490611941565b60405180910390fd5b60006004600084600001518152602001908152602001600020541415610a7257600080fd5b6000801b6005600084600001518152602001908152602001600020541415610a9957600080fd5b60025482600001511415610af357610ab385600254610cd1565b610af2576040517f08c379a0000000000000000000000000000000000000000000000000000000008152600401610ae9906119c1565b60405180910390fd5b5b600660008360000151815260200190815260200160002060008673ffffffffffffffffffffffffffffffffffffffff1673ffffffffffffffffffffffffffffffffffffffff16815260200190815260200160002060009054906101000a900460ff1615610b5f57600080fd5b610b7785836000015184602001518560400151610c7a565b610bb6576040517f08c379a0000000000000000000000000000000000000000000000000000000008152600401610bad90611961565b60405180910390fd5b8160200151830192506001600660008460000151815260200190815260200160002060008773ffffffffffffffffffffffffffffffffffffffff1673ffffffffffffffffffffffffffffffffffffffff16815260200190815260200160002060006101000a81548160ff02191690831515021790555080806001019150506109e5565b50610c448483610d4b565b50505050565b60036020528060005260406000206000915090505481565b60046020528060005260406000206000915090505481565b6000808584604051602001610c90929190611810565b604051602081830303815290604052805190602001209050610cc683600360008881526020019081526020016000205483610e80565b915050949350505050565b600080600560008481526020019081526020016000205490506000600460008581526020019081526020016000205490506000610d0e8684610686565b90506000818301905042811094505050505092915050565b6000809054906101000a900473ffffffffffffffffffffffffffffffffffffffff1681565b6000811115610e41576000809054906101000a900473ffffffffffffffffffffffffffffffffffffffff1673ffffffffffffffffffffffffffffffffffffffff1663a9059cbb83836040518363ffffffff1660e01b8152600401610db0929190611883565b602060405180830381600087803b158015610dca57600080fd5b505af1158015610dde573d6000803e3d6000fd5b505050506040513d601f19601f82011682018060405250610e029190810190611329565b507fd8138f8a3f377c5259ca548e70e4c2de94f129f5a11036a15b69513cba2b426a8282604051610e34929190611883565b60405180910390a1610e7c565b6040517f08c379a0000000000000000000000000000000000000000000000000000000008152600401610e7390611981565b60405180910390fd5b5050565b60008082905060008090505b8551811015610f1e576000868281518110610ea357fe5b60200260200101519050808311610ee4578281604051602001610ec792919061183c565b604051602081830303815290604052805190602001209250610f10565b8083604051602001610ef792919061183c565b6040516020818303038152906040528051906020012092505b508080600101915050610e8c565b508381149150509392505050565b60405180606001604052806000815260200160008152602001606081525090565b600081359050610f5c81611bff565b92915050565b600082601f830112610f7357600080fd5b8135610f86610f8182611a49565b611a1c565b91508181835260208401935060208101905083856020840282011115610fab57600080fd5b60005b83811015610fdb5781610fc188826110f1565b845260208401935060208301925050600181019050610fae565b5050505092915050565b600082601f830112610ff657600080fd5b813561100961100482611a71565b611a1c565b9150818183526020840193506020810190508385602084028201111561102e57600080fd5b60005b8381101561105e578161104488826110f1565b845260208401935060208301925050600181019050611031565b5050505092915050565b600082601f83011261107957600080fd5b813561108c61108782611a99565b611a1c565b9150818183526020840193506020810190508360005b838110156110d257813586016110b88882611106565b8452602084019350602083019250506001810190506110a2565b5050505092915050565b6000815190506110eb81611c16565b92915050565b60008135905061110081611c2d565b92915050565b60006060828403121561111857600080fd5b6111226060611a1c565b905060006111328482850161117e565b60008301525060206111468482850161117e565b602083015250604082013567ffffffffffffffff81111561116657600080fd5b61117284828501610f62565b60408301525092915050565b60008135905061118d81611c44565b92915050565b600080604083850312156111a657600080fd5b60006111b485828601610f4d565b925050602083013567ffffffffffffffff8111156111d157600080fd5b6111dd85828601611068565b9150509250929050565b600080604083850312156111fa57600080fd5b600061120885828601610f4d565b9250506020611219858286016110f1565b9150509250929050565b6000806040838503121561123657600080fd5b600061124485828601610f4d565b92505060206112558582860161117e565b9150509250929050565b60008060006060848603121561127457600080fd5b600061128286828701610f4d565b93505060206112938682870161117e565b92505060406112a48682870161117e565b9150509250925092565b600080600080608085870312156112c457600080fd5b60006112d287828801610f4d565b94505060206112e38782880161117e565b93505060406112f48782880161117e565b925050606085013567ffffffffffffffff81111561131157600080fd5b61131d87828801610fe5565b91505092959194509250565b60006020828403121561133b57600080fd5b6000611349848285016110dc565b91505092915050565b60006020828403121561136457600080fd5b60006113728482850161117e565b91505092915050565b6000806040838503121561138e57600080fd5b600061139c8582860161117e565b92505060206113ad85828601610f4d565b9150509250929050565b600080604083850312156113ca57600080fd5b60006113d88582860161117e565b92505060206113e9858286016110f1565b9150509250929050565b6000806040838503121561140657600080fd5b60006114148582860161117e565b92505060206114258582860161117e565b9150509250929050565b60008060006060848603121561144457600080fd5b60006114528682870161117e565b93505060206114638682870161117e565b9250506040611474868287016110f1565b9150509250925092565b600061148a8383611590565b60208301905092915050565b60006114a283836115ae565b60208301905092915050565b6114b781611b44565b82525050565b6114ce6114c982611b44565b611bba565b82525050565b60006114df82611ae1565b6114e98185611b11565b93506114f483611ac1565b8060005b8381101561152557815161150c888261147e565b975061151783611af7565b9250506001810190506114f8565b5085935050505092915050565b600061153d82611aec565b6115478185611b22565b935061155283611ad1565b8060005b8381101561158357815161156a8882611496565b975061157583611b04565b925050600181019050611556565b5085935050505092915050565b61159981611b56565b82525050565b6115a881611b56565b82525050565b6115b781611b62565b82525050565b6115c681611b62565b82525050565b6115dd6115d882611b62565b611bcc565b82525050565b6115ec81611b96565b82525050565b60006115ff601c83611b33565b91507f5765656b2063616e6e6f7420626520696e2074686520667574757265000000006000830152602082019050919050565b600061163f601683611b33565b91507f496e636f7272656374206d65726b6c652070726f6f66000000000000000000006000830152602082019050919050565b600061167f603983611b33565b91507f4e6f2062616c616e636520776f756c64206265207472616e736665726564202d60008301527f206e6f7420676f6e6e6120776173746520796f757220676173000000000000006020830152604082019050919050565b60006116e5601a83611b33565b91507f4d7573742062652074686520636f6e7472616374206f776e65720000000000006000830152602082019050919050565b6000611725602d83611b33565b91507f497420697320746f6f206561726c7920746f20636c61696d20666f722074686560008301527f2063757272656e74207765656b000000000000000000000000000000000000006020830152604082019050919050565b600061178b601a83611b33565b91507f63616e6e6f742072657772697465206d65726b6c6520726f6f740000000000006000830152602082019050919050565b6117c781611b8c565b82525050565b6117de6117d982611b8c565b611be8565b82525050565b60006117f082856114bd565b60148201915061180082846115cc565b6020820191508190509392505050565b600061181c82856114bd565b60148201915061182c82846117cd565b6020820191508190509392505050565b600061184882856115cc565b60208201915061185882846115cc565b6020820191508190509392505050565b600060208201905061187d60008301846114ae565b92915050565b600060408201905061189860008301856114ae565b6118a560208301846117be565b9392505050565b600060208201905081810360008301526118c681846114d4565b905092915050565b600060208201905081810360008301526118e88184611532565b905092915050565b6000602082019050611905600083018461159f565b92915050565b600060208201905061192060008301846115bd565b92915050565b600060208201905061193b60008301846115e3565b92915050565b6000602082019050818103600083015261195a816115f2565b9050919050565b6000602082019050818103600083015261197a81611632565b9050919050565b6000602082019050818103600083015261199a81611672565b9050919050565b600060208201905081810360008301526119ba816116d8565b9050919050565b600060208201905081810360008301526119da81611718565b9050919050565b600060208201905081810360008301526119fa8161177e565b9050919050565b6000602082019050611a1660008301846117be565b92915050565b6000604051905081810181811067ffffffffffffffff82111715611a3f57600080fd5b8060405250919050565b600067ffffffffffffffff821115611a6057600080fd5b602082029050602081019050919050565b600067ffffffffffffffff821115611a8857600080fd5b602082029050602081019050919050565b600067ffffffffffffffff821115611ab057600080fd5b602082029050602081019050919050565b6000819050602082019050919050565b6000819050602082019050919050565b600081519050919050565b600081519050919050565b6000602082019050919050565b6000602082019050919050565b600082825260208201905092915050565b600082825260208201905092915050565b600082825260208201905092915050565b6000611b4f82611b6c565b9050919050565b60008115159050919050565b6000819050919050565b600073ffffffffffffffffffffffffffffffffffffffff82169050919050565b6000819050919050565b6000611ba182611ba8565b9050919050565b6000611bb382611b6c565b9050919050565b6000611bc582611bd6565b9050919050565b6000819050919050565b6000611be182611bf2565b9050919050565b6000819050919050565b60008160601b9050919050565b611c0881611b44565b8114611c1357600080fd5b50565b611c1f81611b56565b8114611c2a57600080fd5b50565b611c3681611b62565b8114611c4157600080fd5b50565b611c4d81611b8c565b8114611c5857600080fd5b5056fea26469706673582212208c533a48e8a7f045c9ab749d517a72e0bf55225c39a25cf3da745d54f094688764736f6c63430006000033",
  "source": "pragma solidity 0.6.0;\npragma experimental ABIEncoderV2;\n\nimport \"@openzeppelin/contracts/cryptography/MerkleProof.sol\";\nimport \"./IERC20.sol\";\n\ncontract MerkleRedeem {\n\n  IERC20 public token;\n  address public owner;\n\n  event Claimed(address _claimant, uint256 _balance);\n\n\n  // Recorded weeks\n  uint latestWeek;\n  mapping(uint => bytes32) public weekMerkleRoots;\n  mapping(uint => uint) public weekTimestamps;\n  mapping(uint => bytes32) public weekBlockHashes;\n\n  mapping(uint => mapping(address => bool)) public claimed;\n\n  constructor(\n    address _token\n  ) public {\n    token = IERC20(_token);\n    owner = msg.sender;\n  }\n\n  modifier onlyOwner() {\n    require(msg.sender == owner, \"Must be the contract owner\");\n    _;\n  }\n\n  modifier requireWeekInPast(uint week) {\n    require(week <= latestWeek, \"Week cannot be in the future\");\n    _;\n  }\n\n  modifier requireWeekRecorded(uint _week) {\n    require(weekTimestamps[_week] != 0);\n    require(weekBlockHashes[_week] != 0);\n    _;\n  }\n\n  modifier requireMerkleRootUnset(uint _week) {\n    require(weekMerkleRoots[_week] == bytes32(0));\n    _;\n  }\n\n  function disburse(address _liquidityProvider, uint _balance) private {\n    if (_balance > 0) {\n      token.transfer(_liquidityProvider, _balance);\n      emit Claimed(_liquidityProvider, _balance);\n    } else {\n      revert('No balance would be transfered - not gonna waste your gas');\n    }\n  }\n\n\n  function offsetRequirementMet(address user, uint _week) view public returns (bool){\n      bytes32 blockHash = weekBlockHashes[_week];\n      uint timestamp = weekTimestamps[_week];\n      uint offsetSeconds = userWeekOffset(user, blockHash);\n\n      uint earliestClaimableTimestamp = timestamp + offsetSeconds;\n      return earliestClaimableTimestamp < block.timestamp;\n  }\n\n  function claimWeek(address _liquidityProvider, uint _week, uint _claimedBalance, bytes32[] memory _merkleProof) public\n  requireWeekInPast(_week)\n  requireWeekRecorded(_week)\n  {\n    // if trying to claim for the current week\n    if(_week == latestWeek) {\n      require(offsetRequirementMet(_liquidityProvider, latestWeek), \"It is too early to claim for the current week\");\n    }\n\n    require(!claimed[_week][_liquidityProvider]);\n    require(verifyClaim(_liquidityProvider, _week, _claimedBalance, _merkleProof), 'Incorrect merkle proof');\n\n    claimed[_week][_liquidityProvider] = true;\n    disburse(_liquidityProvider, _claimedBalance);\n  }\n\n  struct Claim {\n    uint week;\n    uint balance;\n    bytes32[] merkleProof;\n\n  }\n\n  function claimWeeks(address _liquidityProvider, Claim[] memory claims) public\n  {\n    uint totalBalance = 0;\n    Claim memory claim ;\n    for(uint i = 0; i < claims.length; i++) {\n      claim = claims[i];\n      require(claim.week <= latestWeek, \"Week cannot be in the future\");\n      require(weekTimestamps[claim.week] != 0);\n      require(weekBlockHashes[claim.week] != 0);\n\n      // if trying to claim for the current week\n      if(claim.week == latestWeek) {\n        require(offsetRequirementMet(_liquidityProvider, latestWeek), \"It is too early to claim for the current week\");\n      }\n\n      require(!claimed[claim.week][_liquidityProvider]);\n      require(verifyClaim(_liquidityProvider, claim.week, claim.balance, claim.merkleProof), 'Incorrect merkle proof');\n\n      totalBalance += claim.balance;\n      claimed[claim.week][_liquidityProvider] = true;\n    }\n    disburse(_liquidityProvider, totalBalance);\n  }\n\n  function claimStatus(address _liquidityProvider, uint _begin, uint _end) view public returns (bool[] memory) {\n    uint size = 1 + _end - _begin;\n    bool[] memory arr = new bool[](size);\n    for(uint i = 0; i < size; i++) {\n      arr[i] = claimed[_begin + i][_liquidityProvider];\n    }\n    return arr;\n  }\n\n  function merkleRoots(uint _begin, uint _end) view public returns (bytes32[] memory) {\n    uint size = 1 + _end - _begin;\n    bytes32[] memory arr = new bytes32[](size);\n    for(uint i = 0; i < size; i++) {\n      arr[i] = weekMerkleRoots[_begin + i];\n    }\n    return arr;\n  }\n\n  function verifyClaim(address _liquidityProvider, uint _week, uint _claimedBalance, bytes32[] memory _merkleProof) view public returns (bool valid) {\n    bytes32 leaf = keccak256(abi.encodePacked(_liquidityProvider, _claimedBalance));\n    return MerkleProof.verify(_merkleProof, weekMerkleRoots[_week], leaf);\n  }\n\n  function userWeekOffset(address _liquidityProvider, bytes32 _weekBlockHash) pure public returns (uint offset) {\n    bytes32 hash = keccak256(abi.encodePacked(_liquidityProvider, _weekBlockHash));\n    assembly {\n      offset :=\n        mod(\n          hash,\n          604800 // seconds in a week\n        )\n    }\n    return offset;\n  }\n\n\n  function finishWeek(uint _week, uint _timestamp, bytes32 _blockHash) public\n  onlyOwner\n  {\n    weekTimestamps[_week] = _timestamp;\n    weekBlockHashes[_week] = _blockHash;\n    if (_week > latestWeek) { // just in case we get these out of order\n      latestWeek = _week;\n    }\n  }\n\n  function seedAllocations(uint _week, bytes32 _merkleRoot) external\n  requireWeekRecorded(_week)\n  requireMerkleRootUnset(_week)\n  onlyOwner\n  {\n    require(weekMerkleRoots[_week] == bytes32(0), \"cannot rewrite merkle root\");\n    weekMerkleRoots[_week] = _merkleRoot;\n  }\n}\n",
  "sourcePath": "/home/greg/erc20-redeemable/merkle/contracts/MerkleRedeem.sol",
  "compiler": {
    "name": "solc",
    "version": "0.6.0+commit.26b70077.Emscripten.clang"
  },
  "schemaVersion": "3.2.3",
  "updatedAt": "2020-08-15T08:53:56.558Z",
  "networkType": "ethereum",
  "devdoc": {
    "methods": {}
  },
  "userdoc": {
    "methods": {}
  }
}