{
  "contractName": "MerkleRedeem",
  "abi": [
    {
      "inputs": [
        {
          "internalType": "address",
          "name": "_token",
          "type": "address"
        }
      ],
      "stateMutability": "nonpayable",
      "type": "constructor"
    },
    {
      "anonymous": false,
      "inputs": [
        {
          "indexed": false,
          "internalType": "address",
          "name": "_claimant",
          "type": "address"
        },
        {
          "indexed": false,
          "internalType": "uint256",
          "name": "_balance",
          "type": "uint256"
        }
      ],
      "name": "Claimed",
      "type": "event"
    },
    {
      "inputs": [
        {
          "internalType": "uint256",
          "name": "",
          "type": "uint256"
        },
        {
          "internalType": "address",
          "name": "",
          "type": "address"
        }
      ],
      "name": "claimed",
      "outputs": [
        {
          "internalType": "bool",
          "name": "",
          "type": "bool"
        }
      ],
      "stateMutability": "view",
      "type": "function"
    },
    {
      "inputs": [],
      "name": "owner",
      "outputs": [
        {
          "internalType": "address",
          "name": "",
          "type": "address"
        }
      ],
      "stateMutability": "view",
      "type": "function"
    },
    {
      "inputs": [],
      "name": "token",
      "outputs": [
        {
          "internalType": "contract IERC20",
          "name": "",
          "type": "address"
        }
      ],
      "stateMutability": "view",
      "type": "function"
    },
    {
      "inputs": [
        {
          "internalType": "uint256",
          "name": "",
          "type": "uint256"
        }
      ],
      "name": "weekMerkleRoots",
      "outputs": [
        {
          "internalType": "bytes32",
          "name": "",
          "type": "bytes32"
        }
      ],
      "stateMutability": "view",
      "type": "function"
    },
    {
      "inputs": [
        {
          "internalType": "address",
          "name": "_liquidityProvider",
          "type": "address"
        },
        {
          "internalType": "uint256",
          "name": "_week",
          "type": "uint256"
        },
        {
          "internalType": "uint256",
          "name": "_claimedBalance",
          "type": "uint256"
        },
        {
          "internalType": "bytes32[]",
          "name": "_merkleProof",
          "type": "bytes32[]"
        }
      ],
      "name": "claimWeek",
      "outputs": [],
      "stateMutability": "nonpayable",
      "type": "function"
    },
    {
      "inputs": [
        {
          "internalType": "address",
          "name": "_liquidityProvider",
          "type": "address"
        },
        {
          "components": [
            {
              "internalType": "uint256",
              "name": "week",
              "type": "uint256"
            },
            {
              "internalType": "uint256",
              "name": "balance",
              "type": "uint256"
            },
            {
              "internalType": "bytes32[]",
              "name": "merkleProof",
              "type": "bytes32[]"
            }
          ],
          "internalType": "struct MerkleRedeem.Claim[]",
          "name": "claims",
          "type": "tuple[]"
        }
      ],
      "name": "claimWeeks",
      "outputs": [],
      "stateMutability": "nonpayable",
      "type": "function"
    },
    {
      "inputs": [
        {
          "internalType": "address",
          "name": "_liquidityProvider",
          "type": "address"
        },
        {
          "internalType": "uint256",
          "name": "_begin",
          "type": "uint256"
        },
        {
          "internalType": "uint256",
          "name": "_end",
          "type": "uint256"
        }
      ],
      "name": "claimStatus",
      "outputs": [
        {
          "internalType": "bool[]",
          "name": "",
          "type": "bool[]"
        }
      ],
      "stateMutability": "view",
      "type": "function"
    },
    {
      "inputs": [
        {
          "internalType": "uint256",
          "name": "_begin",
          "type": "uint256"
        },
        {
          "internalType": "uint256",
          "name": "_end",
          "type": "uint256"
        }
      ],
      "name": "merkleRoots",
      "outputs": [
        {
          "internalType": "bytes32[]",
          "name": "",
          "type": "bytes32[]"
        }
      ],
      "stateMutability": "view",
      "type": "function"
    },
    {
      "inputs": [
        {
          "internalType": "address",
          "name": "_liquidityProvider",
          "type": "address"
        },
        {
          "internalType": "uint256",
          "name": "_week",
          "type": "uint256"
        },
        {
          "internalType": "uint256",
          "name": "_claimedBalance",
          "type": "uint256"
        },
        {
          "internalType": "bytes32[]",
          "name": "_merkleProof",
          "type": "bytes32[]"
        }
      ],
      "name": "verifyClaim",
      "outputs": [
        {
          "internalType": "bool",
          "name": "valid",
          "type": "bool"
        }
      ],
      "stateMutability": "view",
      "type": "function"
    },
    {
      "inputs": [
        {
          "internalType": "uint256",
          "name": "_week",
          "type": "uint256"
        },
        {
          "internalType": "bytes32",
          "name": "_merkleRoot",
          "type": "bytes32"
        },
        {
          "internalType": "uint256",
          "name": "_totalAllocation",
          "type": "uint256"
        }
      ],
      "name": "seedAllocations",
      "outputs": [],
      "stateMutability": "nonpayable",
      "type": "function"
    }
  ],
  "bytecode": "0x60806040523480156200001157600080fd5b50604051620017cd380380620017cd8339818101604052810190620000379190620000d6565b806000806101000a81548173ffffffffffffffffffffffffffffffffffffffff021916908373ffffffffffffffffffffffffffffffffffffffff16021790555033600160006101000a81548173ffffffffffffffffffffffffffffffffffffffff021916908373ffffffffffffffffffffffffffffffffffffffff1602179055505062000150565b600081519050620000d08162000136565b92915050565b600060208284031215620000e957600080fd5b6000620000f984828501620000bf565b91505092915050565b60006200010f8262000116565b9050919050565b600073ffffffffffffffffffffffffffffffffffffffff82169050919050565b620001418162000102565b81146200014d57600080fd5b50565b61166d80620001606000396000f3fe608060405234801561001057600080fd5b506004361061009e5760003560e01c80638da5cb5b116100665780638da5cb5b1461016b578063c804c39a14610189578063dd8c9c9d146101a5578063eb0d07f5146101d5578063fc0c546a146102055761009e565b8063120aa877146100a357806339436b00146100d357806347fb23c1146101035780634cd488ab1461013357806358b4e4b41461014f575b600080fd5b6100bd60048036038101906100b89190610e92565b610223565b6040516100ca9190611319565b60405180910390f35b6100ed60048036038101906100e89190610f1d565b610252565b6040516100fa91906112f7565b60405180910390f35b61011d60048036038101906101189190610d76565b6102fe565b60405161012a91906112d5565b60405180910390f35b61014d60048036038101906101489190610ece565b6103fb565b005b61016960048036038101906101649190610dc5565b6105ef565b005b61017361071b565b604051610180919061125a565b60405180910390f35b6101a3600480360381019061019e9190610d22565b610741565b005b6101bf60048036038101906101ba9190610e69565b6108ca565b6040516101cc9190611334565b60405180910390f35b6101ef60048036038101906101ea9190610dc5565b6108e2565b6040516101fc9190611319565b60405180910390f35b61020d610939565b60405161021a919061134f565b60405180910390f35b60036020528160005260406000206020528060005260406000206000915091509054906101000a900460ff1681565b60606000838360010103905060608167ffffffffffffffff8111801561027757600080fd5b506040519080825280602002602001820160405280156102a65781602001602082028036833780820191505090505b50905060008090505b828110156102f257600260008288018152602001908152602001600020548282815181106102d957fe5b60200260200101818152505080806001019150506102af565b50809250505092915050565b60606000838360010103905060608167ffffffffffffffff8111801561032357600080fd5b506040519080825280602002602001820160405280156103525781602001602082028036833780820191505090505b50905060008090505b828110156103ee5760036000828801815260200190815260200160002060008873ffffffffffffffffffffffffffffffffffffffff1673ffffffffffffffffffffffffffffffffffffffff16815260200190815260200160002060009054906101000a900460ff168282815181106103cf57fe5b602002602001019015159081151581525050808060010191505061035b565b5080925050509392505050565b600160009054906101000a900473ffffffffffffffffffffffffffffffffffffffff1673ffffffffffffffffffffffffffffffffffffffff163373ffffffffffffffffffffffffffffffffffffffff161461048b576040517f08c379a00000000000000000000000000000000000000000000000000000000081526004016104829061138a565b60405180910390fd5b6000801b6002600085815260200190815260200160002054146104e3576040517f08c379a00000000000000000000000000000000000000000000000000000000081526004016104da906113ca565b60405180910390fd5b8160026000858152602001908152602001600020819055506000809054906101000a900473ffffffffffffffffffffffffffffffffffffffff1673ffffffffffffffffffffffffffffffffffffffff166323b872dd3330846040518463ffffffff1660e01b815260040161055993929190611275565b602060405180830381600087803b15801561057357600080fd5b505af1158015610587573d6000803e3d6000fd5b505050506040513d601f19601f820116820180604052508101906105ab9190610e40565b6105ea576040517f08c379a00000000000000000000000000000000000000000000000000000000081526004016105e1906113aa565b60405180910390fd5b505050565b6003600084815260200190815260200160002060008573ffffffffffffffffffffffffffffffffffffffff1673ffffffffffffffffffffffffffffffffffffffff16815260200190815260200160002060009054906101000a900460ff161561065757600080fd5b610663848484846108e2565b6106a2576040517f08c379a00000000000000000000000000000000000000000000000000000000081526004016106999061136a565b60405180910390fd5b60016003600085815260200190815260200160002060008673ffffffffffffffffffffffffffffffffffffffff1673ffffffffffffffffffffffffffffffffffffffff16815260200190815260200160002060006101000a81548160ff021916908315150217905550610715848361095e565b50505050565b600160009054906101000a900473ffffffffffffffffffffffffffffffffffffffff1681565b600080905061074e610b3e565b60008090505b83518110156108b95783818151811061076957fe5b60200260200101519150600360008360000151815260200190815260200160002060008673ffffffffffffffffffffffffffffffffffffffff1673ffffffffffffffffffffffffffffffffffffffff16815260200190815260200160002060009054906101000a900460ff16156107df57600080fd5b6107f7858360000151846020015185604001516108e2565b610836576040517f08c379a000000000000000000000000000000000000000000000000000000000815260040161082d9061136a565b60405180910390fd5b8160200151830192506001600360008460000151815260200190815260200160002060008773ffffffffffffffffffffffffffffffffffffffff1673ffffffffffffffffffffffffffffffffffffffff16815260200190815260200160002060006101000a81548160ff0219169083151502179055508080600101915050610754565b506108c4848361095e565b50505050565b60026020528060005260406000206000915090505481565b60008085846040516020016108f8929190611202565b60405160208183030381529060405280519060200120905061092e83600260008881526020019081526020016000205483610a92565b915050949350505050565b6000809054906101000a900473ffffffffffffffffffffffffffffffffffffffff1681565b6000811115610a8e577fd8138f8a3f377c5259ca548e70e4c2de94f129f5a11036a15b69513cba2b426a82826040516109989291906112ac565b60405180910390a16000809054906101000a900473ffffffffffffffffffffffffffffffffffffffff1673ffffffffffffffffffffffffffffffffffffffff1663a9059cbb83836040518363ffffffff1660e01b81526004016109fc9291906112ac565b602060405180830381600087803b158015610a1657600080fd5b505af1158015610a2a573d6000803e3d6000fd5b505050506040513d601f19601f82011682018060405250810190610a4e9190610e40565b610a8d576040517f08c379a0000000000000000000000000000000000000000000000000000000008152600401610a84906113aa565b60405180910390fd5b5b5050565b60008082905060008090505b8551811015610b30576000868281518110610ab557fe5b60200260200101519050808311610af6578281604051602001610ad992919061122e565b604051602081830303815290604052805190602001209250610b22565b8083604051602001610b0992919061122e565b6040516020818303038152906040528051906020012092505b508080600101915050610a9e565b508381149150509392505050565b60405180606001604052806000815260200160008152602001606081525090565b600081359050610b6e816115db565b92915050565b600082601f830112610b8557600080fd5b8135610b98610b9382611417565b6113ea565b91508181835260208401935060208101905083856020840282011115610bbd57600080fd5b60005b83811015610bed5781610bd38882610c80565b845260208401935060208301925050600181019050610bc0565b5050505092915050565b600082601f830112610c0857600080fd5b8135610c1b610c168261143f565b6113ea565b9150818183526020840193506020810190508360005b83811015610c615781358601610c478882610c95565b845260208401935060208301925050600181019050610c31565b5050505092915050565b600081519050610c7a816115f2565b92915050565b600081359050610c8f81611609565b92915050565b600060608284031215610ca757600080fd5b610cb160606113ea565b90506000610cc184828501610d0d565b6000830152506020610cd584828501610d0d565b602083015250604082013567ffffffffffffffff811115610cf557600080fd5b610d0184828501610b74565b60408301525092915050565b600081359050610d1c81611620565b92915050565b60008060408385031215610d3557600080fd5b6000610d4385828601610b5f565b925050602083013567ffffffffffffffff811115610d6057600080fd5b610d6c85828601610bf7565b9150509250929050565b600080600060608486031215610d8b57600080fd5b6000610d9986828701610b5f565b9350506020610daa86828701610d0d565b9250506040610dbb86828701610d0d565b9150509250925092565b60008060008060808587031215610ddb57600080fd5b6000610de987828801610b5f565b9450506020610dfa87828801610d0d565b9350506040610e0b87828801610d0d565b925050606085013567ffffffffffffffff811115610e2857600080fd5b610e3487828801610b74565b91505092959194509250565b600060208284031215610e5257600080fd5b6000610e6084828501610c6b565b91505092915050565b600060208284031215610e7b57600080fd5b6000610e8984828501610d0d565b91505092915050565b60008060408385031215610ea557600080fd5b6000610eb385828601610d0d565b9250506020610ec485828601610b5f565b9150509250929050565b600080600060608486031215610ee357600080fd5b6000610ef186828701610d0d565b9350506020610f0286828701610c80565b9250506040610f1386828701610d0d565b9150509250925092565b60008060408385031215610f3057600080fd5b6000610f3e85828601610d0d565b9250506020610f4f85828601610d0d565b9150509250929050565b6000610f65838361107a565b60208301905092915050565b6000610f7d8383611098565b60208301905092915050565b610f928161153c565b82525050565b610fa1816114ea565b82525050565b610fb8610fb3826114ea565b611596565b82525050565b6000610fc982611487565b610fd381856114b7565b9350610fde83611467565b8060005b8381101561100f578151610ff68882610f59565b97506110018361149d565b925050600181019050610fe2565b5085935050505092915050565b600061102782611492565b61103181856114c8565b935061103c83611477565b8060005b8381101561106d5781516110548882610f71565b975061105f836114aa565b925050600181019050611040565b5085935050505092915050565b611083816114fc565b82525050565b611092816114fc565b82525050565b6110a181611508565b82525050565b6110b081611508565b82525050565b6110c76110c282611508565b6115a8565b82525050565b6110d68161154e565b82525050565b60006110e96016836114d9565b91507f496e636f7272656374206d65726b6c652070726f6f66000000000000000000006000830152602082019050919050565b6000611129601a836114d9565b91507f4d7573742062652074686520636f6e7472616374206f776e65720000000000006000830152602082019050919050565b60006111696013836114d9565b91507f4552525f5452414e534645525f4641494c4544000000000000000000000000006000830152602082019050919050565b60006111a9601a836114d9565b91507f63616e6e6f742072657772697465206d65726b6c6520726f6f740000000000006000830152602082019050919050565b6111e581611532565b82525050565b6111fc6111f782611532565b6115c4565b82525050565b600061120e8285610fa7565b60148201915061121e82846111eb565b6020820191508190509392505050565b600061123a82856110b6565b60208201915061124a82846110b6565b6020820191508190509392505050565b600060208201905061126f6000830184610f98565b92915050565b600060608201905061128a6000830186610f89565b6112976020830185610f98565b6112a460408301846111dc565b949350505050565b60006040820190506112c16000830185610f98565b6112ce60208301846111dc565b9392505050565b600060208201905081810360008301526112ef8184610fbe565b905092915050565b60006020820190508181036000830152611311818461101c565b905092915050565b600060208201905061132e6000830184611089565b92915050565b600060208201905061134960008301846110a7565b92915050565b600060208201905061136460008301846110cd565b92915050565b60006020820190508181036000830152611383816110dc565b9050919050565b600060208201905081810360008301526113a38161111c565b9050919050565b600060208201905081810360008301526113c38161115c565b9050919050565b600060208201905081810360008301526113e38161119c565b9050919050565b6000604051905081810181811067ffffffffffffffff8211171561140d57600080fd5b8060405250919050565b600067ffffffffffffffff82111561142e57600080fd5b602082029050602081019050919050565b600067ffffffffffffffff82111561145657600080fd5b602082029050602081019050919050565b6000819050602082019050919050565b6000819050602082019050919050565b600081519050919050565b600081519050919050565b6000602082019050919050565b6000602082019050919050565b600082825260208201905092915050565b600082825260208201905092915050565b600082825260208201905092915050565b60006114f582611512565b9050919050565b60008115159050919050565b6000819050919050565b600073ffffffffffffffffffffffffffffffffffffffff82169050919050565b6000819050919050565b600061154782611572565b9050919050565b600061155982611560565b9050919050565b600061156b82611512565b9050919050565b600061157d82611584565b9050919050565b600061158f82611512565b9050919050565b60006115a1826115b2565b9050919050565b6000819050919050565b60006115bd826115ce565b9050919050565b6000819050919050565b60008160601b9050919050565b6115e4816114ea565b81146115ef57600080fd5b50565b6115fb816114fc565b811461160657600080fd5b50565b61161281611508565b811461161d57600080fd5b50565b61162981611532565b811461163457600080fd5b5056fea2646970667358221220ae4e69060a2bb2c60d01f3ea08a62367d20f94e0dcb5eda6fe0a653ea57ecc0a64736f6c63430006080033",
  "immutableReferences": {},
  "source": "pragma solidity 0.6.8;\npragma experimental ABIEncoderV2;\n\nlibrary MerkleProof {\n    /**\n     * @dev Returns true if a `leaf` can be proved to be a part of a Merkle tree\n     * defined by `root`. For this, a `proof` must be provided, containing\n     * sibling hashes on the branch from the leaf to the root of the tree. Each\n     * pair of leaves and each pair of pre-images are assumed to be sorted.\n     */\n    function verify(bytes32[] memory proof, bytes32 root, bytes32 leaf) internal pure returns (bool) {\n        bytes32 computedHash = leaf;\n\n        for (uint256 i = 0; i < proof.length; i++) {\n            bytes32 proofElement = proof[i];\n\n            if (computedHash <= proofElement) {\n                // Hash(current computed hash + current element of the proof)\n                computedHash = keccak256(abi.encodePacked(computedHash, proofElement));\n            } else {\n                // Hash(current element of the proof + current computed hash)\n                computedHash = keccak256(abi.encodePacked(proofElement, computedHash));\n            }\n        }\n\n        // Check if the computed hash (root) is equal to the provided root\n        return computedHash == root;\n    }\n}\n\nimport \"./IERC20.sol\";\n\ncontract MerkleRedeem {\n\n    IERC20 public token;\n    address public owner;\n\n    event Claimed(address _claimant, uint256 _balance);\n\n    // Recorded weeks\n    mapping(uint => bytes32) public weekMerkleRoots;\n    mapping(uint => mapping(address => bool)) public claimed;\n\n    constructor(\n        address _token\n    ) public {\n        token = IERC20(_token);\n        owner = msg.sender;\n    }\n\n    modifier onlyOwner() {\n        require(msg.sender == owner, \"Must be the contract owner\");\n        _;\n    }\n\n    function disburse(\n        address _liquidityProvider,\n        uint _balance\n    )\n        private\n    {\n        if (_balance > 0) {\n            emit Claimed(_liquidityProvider, _balance);\n            require(token.transfer(_liquidityProvider, _balance), \"ERR_TRANSFER_FAILED\");\n        }\n    }\n\n    function claimWeek(\n        address _liquidityProvider,\n        uint _week,\n        uint _claimedBalance,\n        bytes32[] memory _merkleProof\n    )\n        public\n    {\n        require(!claimed[_week][_liquidityProvider]);\n        require(verifyClaim(_liquidityProvider, _week, _claimedBalance, _merkleProof), 'Incorrect merkle proof');\n\n        claimed[_week][_liquidityProvider] = true;\n        disburse(_liquidityProvider, _claimedBalance);\n    }\n\n    struct Claim {\n        uint week;\n        uint balance;\n        bytes32[] merkleProof;\n    }\n\n    function claimWeeks(\n        address _liquidityProvider,\n        Claim[] memory claims\n    )\n        public\n    {\n        uint totalBalance = 0;\n        Claim memory claim ;\n        for(uint i = 0; i < claims.length; i++) {\n            claim = claims[i];\n\n            require(!claimed[claim.week][_liquidityProvider]);\n            require(verifyClaim(_liquidityProvider, claim.week, claim.balance, claim.merkleProof), 'Incorrect merkle proof');\n\n            totalBalance += claim.balance;\n            claimed[claim.week][_liquidityProvider] = true;\n        }\n        disburse(_liquidityProvider, totalBalance);\n    }\n\n    function claimStatus(\n        address _liquidityProvider,\n        uint _begin,\n        uint _end\n    )\n        external\n        view\n        returns (bool[] memory)\n    {\n        uint size = 1 + _end - _begin;\n        bool[] memory arr = new bool[](size);\n        for(uint i = 0; i < size; i++) {\n            arr[i] = claimed[_begin + i][_liquidityProvider];\n        }\n        return arr;\n    }\n\n    function merkleRoots(\n        uint _begin,\n        uint _end\n    ) \n        external\n        view \n        returns (bytes32[] memory)\n    {\n        uint size = 1 + _end - _begin;\n        bytes32[] memory arr = new bytes32[](size);\n        for(uint i = 0; i < size; i++) {\n            arr[i] = weekMerkleRoots[_begin + i];\n        }\n        return arr;\n    }\n\n    function verifyClaim(\n        address _liquidityProvider,\n        uint _week,\n        uint _claimedBalance,\n        bytes32[] memory _merkleProof\n    )\n        public\n        view\n        returns (bool valid)\n    {\n        bytes32 leaf = keccak256(abi.encodePacked(_liquidityProvider, _claimedBalance));\n        return MerkleProof.verify(_merkleProof, weekMerkleRoots[_week], leaf);\n    }\n\n    function seedAllocations(\n        uint _week,\n        bytes32 _merkleRoot,\n        uint _totalAllocation\n    )\n        external\n        onlyOwner\n    {\n        require(weekMerkleRoots[_week] == bytes32(0), \"cannot rewrite merkle root\");\n        weekMerkleRoots[_week] = _merkleRoot;\n\n        require(token.transferFrom(msg.sender, address(this), _totalAllocation), \"ERR_TRANSFER_FAILED\");\n    }\n}\n",
  "sourcePath": "/Users/mike/Projects/balancer/erc20-redeemable/merkle/contracts/MerkleRedeem.sol",
  "compiler": {
    "name": "solc",
    "version": "0.6.8+commit.0bbfe453.Emscripten.clang"
  },
  "schemaVersion": "3.2.3",
  "updatedAt": "2020-09-16T19:38:38.549Z",
  "devdoc": {
    "methods": {}
  },
  "userdoc": {
    "methods": {}
  }
}